:100000000C9434000C9446000C9446000C9446006A
:100010000C9446000C9446000C9446000C94460048
:100020000C9446000C9446000C9446000C949B00E3
:100030000C9446000C9446000C9446000C94460028
:100040000C9446000C9446000C9446000C94460018
:100050000C9446000C9446000C9446000C94460008
:100060000C9446000C94460011241FBECFEFD8E03C
:10007000DEBFCDBF21E0A0E0B1E001C01D92A23003
:10008000B207E1F70E9448000C94BF000C940000F6
:1000900010928000E1E8F0E010821092850010924A
:1000A000840088E09DE3909389008093880080819C
:1000B00088608083808185608083EFE6F0E08081C6
:1000C00082608083789471E0E0E086B196B19170AF
:1000D00096B9872F911101C08E2F96B1927096B963
:1000E000472F911101C04E2F96B1927096B9372FBC
:1000F000911101C03E2F242F282B942F98276BB1EC
:10010000522F532B5295550F507E562B5BB95BB136
:10011000842383238295880F880F807C852B8BB95D
:100120008BB1209529272323922797959927979577
:10013000982B9BB9CACF1F920F920FB60F92112422
:100140008F939F938091000190910101019690936C
:10015000010180930001880F880F8BB98091000105
:1001600090910101079721F4109201011092000172
:100170009F918F910F900FBE0F901F901895F8943C
:02018000FFCFAF
:00000001FF
