:100000000C9434000C9446000C9446000C9446006A
:100010000C9446000C9446000C9446000C94460048
:100020000C9446000C9446000C9446000C949300EB
:100030000C9446000C9446000C9446000C94460028
:100040000C9446000C9446000C9446000C94460018
:100050000C9446000C9446000C9446000C94460008
:100060000C9446000C94460011241FBECFEFD8E03C
:10007000DEBFCDBF21E0A0E0B1E001C01D92A23003
:10008000B207E1F70E9448000C94B7000C940000FE
:1000900010928000E1E8F0E010821092850010924A
:1000A000840088E09DE3909389008093880080819C
:1000B00088608083808185608083EFE6F0E08081C6
:1000C0008260808378948FEF8AB951E060E086B1D6
:1000D000817086B9952F8111962F26B1227026B98D
:1000E000352F2111362F26B1247026B9852F2111E5
:1000F000862F232F292B282B2295220F207E2BB9E8
:100100004BB1232F292328232295220F220F207C55
:10011000242B2BB92BB1932789278795882787957F
:10012000822B8BB9D4CF1F920F920FB60F9211244E
:100130008F939F9380910001880F880F8BB98091D6
:100140000001909101018730910531F00196909363
:1001500001018093000104C010920101109200017E
:100160009F918F910F900FBE0F901F901895F8944C
:02017000FFCFBF
:00000001FF
