S01500004C6F676963416E64436F756E742E7372656305
S11300000C9434000C9446000C9446000C94460066
S11300100C9446000C9446000C9446000C94460044
S11300200C9446000C9446000C9446000C948400F6
S11300300C9446000C9446000C9446000C94460024
S11300400C9446000C9446000C9446000C94460014
S11300500C9446000C9446000C9446000C94460004
S11300600C9446000C94460011241FBECFEFD8E038
S1130070DEBFCDBF21E0A0E0B1E001C01D92A230FF
S1130080B207E1F70E9448000C94A8000C94000009
S113009010928000E1E8F0E0108210928500109246
S11300A0840088E09DE39093890080938800808198
S11300B088608083808185608083EFE6F0E08081C2
S11300C08260808378941BB886B187708095982F5E
S11300D0917081FB442740F982FB882780F9392FEE
S11300E0342B292F24275BB148239423990F432FC2
S11300F0482B942B3095322783238227880F880F2F
S1130100892B852B8BB9DFCF1F920F920FB60F92DD
S113011011248F939F938091000190910101019686
S11301209093010180930001880F880F8BB980910F
S1130130000190910101079721F41092010110929E
S113014000019F918F910F900FBE0F901F901895F3
S1070150F894FFCF4D
S9030000FC
