:100000000C9434000C9446000C9446000C9446006A
:100010000C9446000C9446000C9446000C94460048
:100020000C9446000C9446000C9446000C949800E6
:100030000C9446000C9446000C9446000C94460028
:100040000C9446000C9446000C9446000C94460018
:100050000C9446000C9446000C9446000C94460008
:100060000C9446000C94460011241FBECFEFD8E03C
:10007000DEBFCDBF21E0A0E0B1E001C01D92A23003
:10008000B207E1F70E9448000C94C9000C940000EC
:1000900010928000E1E8F0E010821092850010924A
:1000A00084008AEF90E0909389008093880080819B
:1000B00088608083808185608083EFE6F0E08081C6
:1000C0008260808378948FEF8AB951E060E086B1D6
:1000D000817086B9952F8111962F26B1227026B98D
:1000E000352F2111362F26B1247026B9852F2111E5
:1000F000862F2BB12C712BB94BB1232F292B282BF9
:100100002295220F207E242B2BB94BB1232F29239C
:1001100028232295220F220F207C242B2BB92BB1D0
:1001200093278927879588278795822B8BB9CFCFEF
:100130001F920F920FB60F9211242F933F938F931C
:100140009F938BB1807E8BB98091000190910101CA
:100150002BB1880F991F880F991F822B8BB9809123
:100160000001909101019C012F5F3F4F30930101ED
:1001700020930001079721F41092010110920001D1
:100180009F918F913F912F910F900FBE0F901F90D5
:060190001895F894FFCF62
:00000001FF
